:10000000B9C00000D5C00000D3C00000D1C00000BE
:10001000CFC00000CDC00000CBC00000C9C00000B0
:10002000C7C00000C5C0000097C40000C1C00000E8
:10003000BFC00000BDC00000BBC00000B9C00000D0
:10004000B7C00000B5C00000B3C00000B1C00000E0
:10005000AFC00000ADC00000ABC00000A9C00000F0
:10006000A7C00000A5C00000A3C00000A1C0000000
:100070009FC000009DC000009BC0000099C0000010
:1000800097C0000095C0000093C0000091C0000020
:100090008FC000008DC000003403410054003900BF
:1000A00030005500530042004B004500590020002D
:1000B0004D006F007500730065002B004400460082
:1000C00055002000440065006D006F000000200313
:1000D000480075006700680073006B00690020002D
:1000E0004C0069006D006900740065006400000048
:1000F00004030904090234000201008032090400EB
:10010000000103010200092111010001223A000748
:100110000581030800050904010000FE0101000932
:10012000210F000040001001120110010000000822
:100130003F27002024010102000105010902A1015D
:100140000901A100050919012903150025019503DD
:10015000750181029501750581010501093009319B
:1001600016FFFF26010036FFFF46010095027508C5
:100170008106C0C011241FBECFEFD0E2DEBFCDBFCD
:1001800011E0A0E0B1E0E4E2F2E100E00BBF02C068
:1001900007900D92A032B107D9F721E0A0E2B1E0BB
:1001A00001C01D92A333B207E1F734D00C941009BB
:1001B00027CF9BB19F70892B8BB9089584B7877F18
:1001C00084BF0FB6F894A8958091600088618093F1
:1001D0006000109260000FBE90E080E80FB6F894C7
:1001E00080936100909361000FBE84B18F7184B9D8
:1001F0008DB18F7C8DB985B1806E85B98EB18063EC
:100200008EB98AB1806F8AB98BB18F708BB96A98B9
:10021000729A87C3D3DF80E1CCDF789480E191E0EC
:1002200024D7C2D5809120018823C1F31DD38AB180
:100230008F708AB98BB18F708BB910926F0010924A
:10024000810081E085BF15BEE0E0F0EE099580EA0F
:10025000B0CF80E1AECF80E191E0F4D69091E200A2
:1002600094609093E200811102C080E9A2CF80E601
:10027000FDCFFC01808190E020912F013091300171
:100280002817390709F044C080E389B980912C010F
:100290008330D9F068F4811112C08091E800877F23
:1002A0008093E80081E0809322018093200138C090
:1002B0008530B9F170F1863009F446C00895809117
:1002C000E800877F8093E80008958091E800877FA9
:1002D0008093E8008091E80080FF16C080912101A2
:1002E0008093F1001092F1001092F1001092F10051
:1002F000809122018093F1001092F1008091E8003A
:100300008E778093E8000CC080912A018111E2CFA2
:1003100008958091E800877F8093E8001092210182
:1003200055C28091E800877F8093E8008091E800C3
:1003300080FF05C0809122018093F100DFCF809182
:100340002A018111F3CFE4CF8091E800877F809369
:10035000E80010922201E4CF80E191E040D580E0F6
:1003600091E087CF80911E0190911F01009729F0A5
:10037000019790931F0180931E0108950F931F937F
:10038000F90193B18CB18095869588719095907E96
:10039000892B9CB19095947087FF19C02FEF228311
:1003A00086FF19C02FEF218385FF03C08081816004
:1003B0008083992319F080818260808383E090E0BC
:1003C000F8019183808381E01F910F91089584FF4C
:1003D000E7CF21E0E4CF83FFE7CF21E0E4CF08952A
:1003E000292F33272330310521F158F421303105ED
:1003F00099F022303105C1F080E090E020E030E05B
:100400000FC02132310541F122323105A9F78AE3CB
:1004100090E02AE331E004C082E190E028E231E09C
:10042000FA0131832083089584E390E024EF30E0E3
:10043000F7CF99278130910561F028F00297E1F616
:10044000E8E9F0E002C0E0EFF0E0849190E09F0185
:10045000E7CFEEECF0E0F9CF89E090E026E031E084
:10046000DFCFAF92BF92DF92EF92FF920F931F9375
:10047000CF93DF93EC018B017A01C7D1D82E811184
:1004800025C0E114F10439F0F70180819181081B46
:10049000190BC80FD91FA12CB12C01151105B1F0F2
:1004A0008091E80085FD22C08091E8008E778093DE
:1004B000E8007AD4E114F104A1F0F7018081918180
:1004C000A80EB91EB182A08285E0D82E8D2DDF91B5
:1004D000CF911F910F91FF90EF90DF90BF90AF9061
:1004E000089593D18823C9F2D82EF0CF89918093B3
:1004F000F10001501109FFEFAF1ABF0ACECF2091D2
:1005000031013091320126173707A8F061157105C6
:1005100029F42091E8002E772093E800FC0120E0E8
:100520006115710551F4211108C08091E80082FF26
:1005300031C080E00895B901F1CF80912A0188236C
:10054000A9F18530A9F18091E80083FD2DC080914B
:10055000E80082FDEACF8091E80080FFE1CF809142
:10056000F2009091F3006115710519F08830910542
:1005700050F021E0089709F020E08091E8008E77A4
:100580008093E800CDCF21912093F1006150710953
:100590000196E9CF80912A01882341F0853041F00E
:1005A0008091E80083FFC1CF81E0089582E0089543
:1005B00083E008956115710529F42091E8002B77F7
:1005C0002093E800FC016115710531F48091E80089
:1005D00080FF22C080E0089580912A01882331F1B4
:1005E000853001F18091E80083FD1EC08091E80014
:1005F00082FFE9CF8091F2009091F300892B31F0D6
:100600008091F100819361507109A1F78091E80018
:100610008B778093E800D7CF80912A01882331F02F
:100620008530A1F683E0089581E0089582E0089581
:10063000209131013091320126173707A8F061155A
:10064000710529F42091E8002E772093E800FC0141
:1006500020E06115710551F4211108C08091E80076
:1006600082FF32C080E00895B901F1CF80912A0164
:100670008823B1F18530B1F18091E80083FD2EC06F
:100680008091E80082FDEACF8091E80080FFE1CF11
:100690008091F2009091F3006115710519F0883096
:1006A000910550F021E0089709F020E08091E800E2
:1006B0008E778093E800CDCF24912093F10031967E
:1006C000615071090196E8CF80912A01882341F099
:1006D000853041F08091E80083FFC0CF81E008952C
:1006E00082E0089583E00895982F973028F08F7066
:1006F0008093E90081E008959093E900981751F004
:100700007091EC002091ED005091F00021FD06C0A9
:100710009F5FEBCF242F762F50E0F8CF3091EB0086
:100720003E7F3093EB003091ED003D7F3093ED0044
:100730003091EB0031603093EB007093EC0020932C
:10074000ED005093F0002091EE0027FDE1CF80E016
:1007500008950F931F93CF93DF93062FEC0110E0C2
:10076000101302C081E00FC09881911103C01F5F78
:100770002596F6CF2C81A981BA816B81892F8F7044
:10078000873030F080E0DF91CF911F910F91089575
:100790002230B0F442E0E8E0F0E020E0EA17FB07A6
:1007A00088F02295207F422B20E4629FB001112423
:1007B000991F9927991F692B97DF8111D8CFE2CF15
:1007C00046E0E9CF2F5FEE0FFF1FE8CF80912B01AE
:1007D00087FF13C08091E80082FF06C08091E80087
:1007E0008B778093E80004C080912A018111F2CFB9
:1007F000089580912A018823D9F38091E80080FF31
:10080000F8CF8091E8008E77ECCF2091E400309112
:10081000E50085E69091EC0090FD20C09091E80005
:1008200092FD20C090912A01992391F0953091F08A
:100830009091EB0095FD10C04091E4005091E500CF
:100840004217530739F381509A0121F784E0089544
:1008500082E0089583E0089581E008959091E80092
:1008600090FFE0CF80E008956AD071D0E0EEF0E034
:10087000808181608083E8EDF0E080818F778083E4
:1008800019BCA7EDB0E08C918E7F8C9380818F7E18
:1008900080831092290108950F931F93CF93DF93C4
:1008A0004ED055D0C8EDD0E088818F77888388817D
:1008B0008068888388818F7D8883E7EDF0E0808180
:1008C0008068808319BC10922A0110922601109230
:1008D00028011092270100EE10E0F80180818B7F43
:1008E000808388818160888342E060E080E0FCDE74
:1008F000E1EEF0E080818E7F8083E2EEF0E08081A7
:1009000081608083808188608083F80180818E7F10
:100910008083888180618883DF91CF911F910F91BF
:100920000895E8EDF0E080818F7E8083E7EDF0E0D0
:1009300080818160808381E080932901ADCFE8EDE3
:10094000F0E080818C7F80831092E2000895109205
:10095000DA001092E10008951F920F920FB60F92E5
:1009600011240BB60F922F933F934F935F936F9386
:100970007F938F939F93AF93BF93EF93FF93809158
:10098000E10082FF0AC08091E20082FF06C08091F0
:10099000E1008B7F8093E100E5DC8091DA0080FF4D
:1009A00018C08091D80080FF14C08091DA008E7F3B
:1009B0008093DA008091D90080FF8CC08CE089BDE3
:1009C0008EE089BD09B400FEFDCF81E080932A014D
:1009D0003EDC8091E10080FF18C08091E20080FF42
:1009E00014C08091E2008E7F8093E2008091E2004B
:1009F00080618093E2008091D80080628093D8006B
:100A000019BC85E080932A01CED18091E10084FF5A
:100A100028C08091E20084FF24C08CE089BD8EE074
:100A200089BD09B400FEFDCF8091D8008F7D8093F1
:100A3000D8008091E1008F7E8093E1008091E200F8
:100A40008F7E8093E2008091E20081608093E200DB
:100A500080912601882309F442C084E080932A0112
:100A6000A2D18091E10083FF22C08091E20083FF48
:100A70001EC08091E100877F8093E10082E0809337
:100A80002A01109226018091E1008E7F8093E1007F
:100A90008091E2008E7F8093E2008091E20080618D
:100AA0008093E20042E060E080E01EDE7CD1FF91B6
:100AB000EF91BF91AF919F918F917F916F915F91D6
:100AC0004F913F912F910F900BBE0F900FBE0F9043
:100AD0001F90189519BC10922A01BBDB7ACF809128
:100AE000E30087FD02C081E0B9CF83E0B7CF1F9359
:100AF000CF93DF93CDB7DEB7AA970FB6F894DEBFDA
:100B00000FBECDBFEBE2F1E08091F100819321E0D7
:100B1000E333F207C9F720DC8091E80083FF10C0BF
:100B200080912B0190912C01953009F4D8C000F5EB
:100B3000913009F48BC008F461C0933009F486C089
:100B40008091E80083FF0AC08091E800877F80934E
:100B5000E8008091EB0080628093EB00AA960FB6CC
:100B6000F894DEBF0FBECDBFDF91CF911F910895E6
:100B7000983009F4EDC0993009F4F7C0963001F7C8
:100B800080588230E8F680912D0190912E018C3DA5
:100B900023E0920709F0C7C083E08A838AE2898351
:100BA0004FB7F894DE01139620E03EE051E2E32FC8
:100BB000F0E050935700E49120FF03C0E295EF70FE
:100BC0003F5FEF708E2F90E0EA3008F4AAC0C7961E
:100BD0008D939D932F5F243151F74FBF8091E80093
:100BE000877F8093E8006AE270E0CE01019687DC9F
:100BF0008091E8008B778093E800A2CF803899F04D
:100C0000823809F09DCF80912F018F70873008F0D6
:100C100097CF8093E9008091EB0085FB882780F9CE
:100C20001092E90006C0809127019091280191114E
:100C300082609091E800977F9093E8008093F100A4
:100C40001092F1008091E8008E7732C0282F2D7F1E
:100C500009F076CF8823E9F0823009F071CF8091D6
:100C60002D01811120C080912F018F702FEF280F4F
:100C7000263008F065CF8093E9002091EB0020FF3B
:100C800012C09330C9F48091EB0080628093EB0036
:100C90000AC080912D01813009F052CF933009F0C4
:100CA00080E0809328011092E9008091E800877F1E
:100CB0008093E8008BDD44CF9091EB00906190939E
:100CC000EB0021E030E001C0220F8A95EAF7209383
:100CD000EA001092EA008091EB008860D7CF811182
:100CE0002FCF10912D011F778091E3008078812B09
:100CF0008093E3008091E800877F8093E80066DDC1
:100D00008091E80080FFFCCF8091E30080688093B1
:100D1000E300111104C082E080932A0111CF83E027
:100D2000FBCFC09655CF60912F0170913001AE017D
:100D30004F5F5F4F55DBBC01892B09F401CF9091C8
:100D4000E800977F9093E80089819A8171DC50CF09
:100D5000803809F0F5CE8091E800877F8093E80025
:100D6000809126018093F1006DCF8111E9CE9091A1
:100D70002D01923008F0E4CE8091E800877F8093C7
:100D8000E8009093260122DD80912601882311F04E
:100D900084E005C08091E30087FDFACF81E0809375
:100DA0002A0159DACDCE0895CF9380912A01882364
:100DB00091F0C091E900CF708091EC0080FD0DC0F2
:100DC00080E0C82B1092E9008091E80083FD8FDE5F
:100DD000CF70C093E900CF91089580E8F2CF6F9271
:100DE0007F928F929F92AF92BF92CF92DF92EF92BB
:100DF000FF920F931F93CF93DF9300D01F92CDB735
:100E0000DEB77C01CDB6DEB68091E80083FF16C068
:100E1000F701808190E020912F0130913001281757
:100E2000390761F480912C01833009F4AEC0E8F4F5
:100E3000813009F459C0823009F4EEC00FB6F8943D
:100E4000DEBE0FBECDBE0F900F900F90DF91CF9101
:100E50001F910F91FF90EF90DF90CF90BF90AF90D8
:100E60009F908F907F906F9008958A3009F4BAC058
:100E70008B3009F4A3C0893009F780912B018132AE
:100E8000E9F68DB69EB60091310110913201709055
:100E90002D0160902E018DB79EB7801B910B0FB670
:100EA000F8949EBF0FBE8DBFEDB7FEB731965F01C0
:100EB0008091E800877F8093E800B801CF017ADB5A
:100EC0008091E8008E778093E80021E0711001C0E6
:100ED00020E030E0021B130B2A0D3B1D4FEF460DA7
:100EE000672DC7017CDA4BC080912B01813A09F054
:100EF000A5CF8DB69EB61A82198280912D011091D0
:100F00002E018B83F7018085482F50E08DB79EB767
:100F1000841B950B0FB6F8949EBF0FBE8DBFEDB727
:100F2000FEB731965F0160E070E0CF0172D14FEF04
:100F3000410F8E010F5F1F4F9501BE016D5F7F4F07
:100F4000C7011CDAF70186819781009721F040855F
:100F500050E0B50155D11092E9008091E800877FFB
:100F60008093E8008B8181118093F10069817A81FF
:100F7000C501C5DA8091E8008B778093E8000FB651
:100F8000F8949EBE0FBE8DBE59CF80912B01813A41
:100F900009F054CF8091E800877F8093E80080912A
:100FA000E80080FFFCCFF70181858093F1008091FC
:100FB000E8008E778093E80009DC40CF80912B0118
:100FC000813209F03BCF8091E800877F8093E80071
:100FD000FDDB90912D0181E0911101C080E0F701CE
:100FE00081872CCF80912B01813209F027CF80910E
:100FF000E800877F8093E800E9DB80912D019091E4
:101000002E0136E0969587953A95E1F78C7F93709F
:10101000F7019587848712CF80912B01813A09F0DF
:101020000DCF8091E800877F8093E8008091E800F1
:1010300080FFFCCFF70184859585969587959695D9
:101040008795B3CFFC01399627E0DF011D922A95E1
:10105000E9F721E0FC01218724EF31E0358724877F
:1010600023E0248361E0019674CB4F925F926F92EC
:101070007F928F929F92AF92BF92CF92DF92EF9228
:10108000FF920F931F93CF93DF9300D01F92CDB7A2
:10109000DEB77C016DB67EB680912A01843009F0FE
:1010A00087C08091E4009091E500F70122853385A7
:1010B0002817390709F47CC081818F708093E9007B
:1010C0008091E80085FF74C08DB69EB6408550E0E3
:1010D0008DB79EB7841B950B0FB6F8949EBF0FBEBD
:1010E0008DBFEDB7FEB731966F011B821A82198250
:1010F00060E070E0CF018DD08E010F5F1F4F960131
:1011000040E0BE016D5F7F4FC70138D9482EF7011F
:1011100084859585892B29F001E086859785892B23
:1011200009F000E010E0F701A680B780A114B10437
:1011300009F457C049815A81B501C60154D05524DC
:101140005394892B09F4512CF701408550E0B601E6
:10115000C50156D089819A81892BF1F0411004C0D4
:10116000511002C0012BC1F0F70184859585978746
:10117000868781818F708093E9008B8181118093B4
:10118000F10069817A8140E050E0C6016AD980911E
:10119000E8008E778093E8008091E4009091E5006C
:1011A000F701938782870FB6F8949EBE0FBE8DBE5F
:1011B0000FB6F8947EBE0FBE6DBE0F900F900F90CD
:1011C000DF91CF911F910F91FF90EF90DF90CF9023
:1011D000BF90AF909F908F907F906F905F904F9057
:1011E0000895512CB7CFFB01DC0104C08D91019013
:1011F000801921F441505040C8F7881B990B08957D
:10120000FB01DC0102C001900D9241505040D8F723
:101210000895DC0101C06D9341505040E0F70895FE
:04122000F894FFCF70
:1012240001000000000000000000000000000000B9
:1012340000810800000123010300000000000000F9
:00000001FF
